:020000040800F2
:1000000004150020550B0008AD0B0008AD0B0008CF
:10001000AD0B0008AD0B0008AD0B000800000000A0
:10002000000000000000000000000000AD0B000810
:10003000AD0B000800000000AD0B0008AD0B000880
:10004000AD0B0008AD0B0008AD0B0008AD0B0008B0
:10005000AD0B0008AD0B0008450400088104000842
:100060006D050008AD060008AD0B0008AD0B0008DB
:10007000AD0B0008D51E0008AD0B0008AD0B000845
:10008000AD0B0008AD0B0008AD0B0008AD0B000870
:10009000AD0B0008AD0B0008AD0B0008AD0B000860
:1000A000AD0B0008AD0B0008AD0B0008AD0B000850
:1000B000AD0B0008AD0B0008AD0B0008AD0B000840
:1000C000AD0B0008AD0B0008AD0B0008AD0B000830
:1000D000AD0B0008AD0B0008AD0B0008AD0B000820
:1000E000AD0B0008AD0B0008AD0B0008AD0B000810
:1000F000AD0B0008AD0B0008AD0B0008AD0B000800
:10010000AD0B0008AD0B0008310B0008AD0B00086B
:10011000AD0B0008AD0B00088D170008B11A0008E0
:10012000AD0B0008AD0B0008AD0B0008AD0B0008CF
:10013000AD0B0008AD0B0008AD0B0008AD0B0008BF
:10014000AD0B0008AD0B0008AD0B0008AD0B0008AF
:10015000AD0B0008AD0B0008AD0B0008AD0B00089F
:10016000AD0B0008AD0B0008AD0B0008AD0B00088F
:10017000AD0B0008AD0B0008AD0B0008AD0B00087F
:10018000AD0B0008AD0B000890B484B000AF03467F
:100190000A46FB711346BB710023FB60BB7903F079
:1001A00003039B000F2202FA03F3FB601649BB799D
:1001B0009B08DBB21846144ABB799B08DBB20233BA
:1001C00052F82320FB68DB431A40831C41F82320AC
:1001D0000D48BB799B08DBB21C460B4ABB799B08D8
:1001E000DBB2023352F82320F979BB7903F0030321
:1001F0009B0001FA03F31A43A31C40F82320103795
:10020000BD4690BC704700BF0038014080B483B049
:1002100000AF0346FB71044AFB7913600C37BD46FF
:100220005DF8047B704700BF0004274280B500AF33
:1002300002F096FC124B00221A70124B00221A7028
:10024000114B00221A70114B00221A70104B002221
:100250001A70104B00221A700F4B00221A700F4BAD
:1002600000221A700E4B00221A600E4B00221A60F8
:100270000D4B00221A7001F09DFA00F0D3F880BDFA
:10028000DF080020480A0020E1090020D5080020EE
:10029000520A0020500A0020540A0020530A00206D
:1002A0004C0A0020580A0020DE08002080B500AF6C
:1002B000084B4FF400425A8300F09AFB00F098FB81
:1002C00000F096FB00F094FB024B4FF400421A83BF
:1002D00080BD00BF0000024080B500AF0F4B4FF45F
:1002E00080725A8300F084FB00F082FB0C4B4FF4C9
:1002F00000425A8300F07CFB00F07AFB00F078FBB0
:1003000000F076FB064B4FF400421A8300F070FBBE
:10031000024B4FF480721A8380BD00BF0008024078
:100320000000024080B500AF074B20225A8300F046
:100330005FFB00F05DFB00F05BFB00F059FB024B44
:1003400020221A8380BD00BF0000024080B500AFAC
:10035000064801F0FDFA00F04BFBFFF7E3FF00F069
:1003600047FB4FF07F4001F0F3FA80BD0000E4FF4F
:1003700080B500AF064801F0EBFA00F039FBFFF75B
:10038000D1FF00F035FB4FF07F4001F0E1FA80BD76
:100390000000E0FF80B500AF064801F0D9FA00F098
:1003A00027FBFFF7BFFF00F023FB4FF07F4001F07A
:1003B000CFFA80BD0000E6FF80B500AF064801F02F
:1003C000C7FA00F015FBFFF7ADFF00F011FB4FF08F
:1003D0007F4001F0BDFA80BD0000E2FF80B500AFB4
:1003E000064801F0B5FA00F003FBFFF79BFF00F0B1
:1003F000FFFA4FF07F4001F0ABFA80BD0000E7FF4D
:1004000080B500AF064801F0A3FA00F0F1FAFFF75B
:1004100089FF00F0EDFA4FF07F4001F099FA80BDBE
:100420000000E3FF80B500AF054B20225A8342F263
:10043000107000F00FFB024B20221A8380BD00BF1A
:10044000000C024080B500AF01F0C4F903461A4623
:10045000094B1A70084B1B78002B05D100F0E6FA07
:10046000064B4FF400725A83012002F0DDFE01209A
:1004700002F0CCFE80BD00BF510A002000080240FF
:1004800090B583B000AF01F0A5F90346012B06D16A
:10049000022002F0C9FE022002F0B8FE56E001F090
:1004A000B9F90346FB7100F0CDFA01F0B3F9034648
:1004B0001A46284B1A70274B1B78FA799A4200D0BB
:1004C00044E0244B1B78002B39D101F0EDF90346B1
:1004D000BB71BB79062B28D100F0A8FA1E4B1B7804
:1004E0001C4601F0B7F902461C4B43F8242000F0EB
:1004F0007FFA194B1B780133DAB2174B1A70184B7D
:100500001B78013BDAB2164B1A70154B1B78002B87
:1005100008D1FFF7E1FE134B01221A700E4B0022A7
:100520001A7006E0FFF7C2FE03E000F07FFAFFF763
:10053000BDFE00F05DFA0C4B4FF400721A830220EE
:1005400002F072FE022002F061FE00BF0C37BD46D1
:1005500090BD00BFD4080020E1090020E008002081
:10056000480A0020DF0800200008024080B58CB057
:1005700000AF01F02FF90346012B06D1042002F051
:1005800053FE042002F042FE7BE001F033F9034603
:1005900087F82F3000F02CFA01F02CF903461A46A8
:1005A000394B1A70384B1B7897F82F209A4200D09D
:1005B00067E0354B1B78002B5CD101F075F90346E1
:1005C00087F82E3097F82E30062B1CD100F02EFA2B
:1005D0002E4B01221A7001F03DF902462C4B1A6095
:1005E0002C4B1B78012B0BD1294B1B681A463B1D4A
:1005F0001846294903F022F83B1D184602F022FA5A
:10060000FFF754FE2AE097F82E30072B1CD100F09C
:100610000DFA224B01221A7001F01CF90246204B00
:100620001A601C4B1B78012B0BD11D4B1B681A4603
:100630003B1D18461B4903F001F83B1D184602F00C
:1006400001FAFFF733FE09E0104B00221A70134B3A
:1006500000221A7000F0EAF9FFF728FE042002F0E9
:10066000E3FD042002F0D2FD00F0C2F90E4B4FF47E
:1006700000721A83042002F0D7FD042002F0C6FDA8
:1006800000BF3037BD4680BDDD080020540A002081
:100690004C0A0020DE0800202C800008530A0020AD
:1006A000580A00203C8000080008024080B582B053
:1006B00000AF01F08FF80346012B06D1082002F0AD
:1006C000B3FD082002F0A2FD56E001F0B3F80346A6
:1006D000FB7100F0B7F901F0ADF803461A46284B5C
:1006E0001A70274B1B78FA799A4200D044E0244BC9
:1006F0001B78002B3AD101F0D7F80346BB71BB79C8
:10070000072B29D100F092F91E4B1A681E4B1B785B
:100710009B0013441B68184601F01AF900F086F993
:10072000194B1B780133DAB2174B1A70174B1B7831
:10073000013BDAB2154B1A70144B1B78002B08D111
:10074000FFF7CAFD124B01221A700F4B00221A70DC
:1007500006E0FFF7ABFD03E000F068F9FFF7A6FD48
:1007600000F046F90B4B4FF400721A83082002F098
:100770005BFD082002F04AFD0837BD4680BD00BF82
:10078000DC080020D8080020500A0020520A00206F
:10079000D50800200008024080B58AB000AF78601C
:1007A000396000237B6200233B620023FB6100234E
:1007B000BB617B681B8A9BB27B627B6A23F44053DC
:1007C0007B623B68DB881A467B6A13437B627B6AE9
:1007D0009AB27B681A827B689B899BB27B627B6A38
:1007E00023F4B05323F00C037B623B689A883B6888
:1007F0001B8913439AB23B685B8913439BB21A4629
:100800007B6A13437B627B6A9AB27B689A817B68BE
:100810009B8A9BB27B627B6A23F440737B623B685A
:100820009B891A467B6A13437B627B6A9AB27B6818
:100830009A8207F10803184600F0E8FC7B68314A09
:10084000934203D07B68304A934202D17B693B627A
:1008500001E03B693B627B689B899BB29BB21BB208
:10086000002B0CDA3A6A13469B0013449A001A4490
:100870003B681B685B00B2FBF3F3FB610BE03A6A79
:1008800013469B0013449A001A443B681B689B0064
:10089000B2FBF3F3FB61FB691C4AA2FB03235B0978
:1008A0001B017B627B6A1B09642202FB03F3FA696A
:1008B000D31ABB617B689B899BB29BB21BB2002B96
:1008C0000CDABB69DB003233104AA2FB03235B095D
:1008D00003F007037A6A13437B620BE0BB691B01D9
:1008E00032330A4AA2FB03235B0903F00F037A6A3F
:1008F00013437B627B6A9AB27B681A812837BD46B4
:1009000080BD00BF00100140001401401F85EB5165
:1009100080B483B000AF78600B46FB70FB78002B8F
:1009200008D07B689B899BB243F400539AB27B68E2
:100930009A8107E07B689B899BB223F400539AB2AB
:100940007B689A810C37BD465DF8047B704700BF19
:1009500080B483B000AF78600B467B8013467B7019
:100960007B78002B08D07B689B8A9AB27B881343E4
:100970009AB27B689A8209E07B689B8A9AB27B88EC
:10098000DB439BB213409AB27B689A820C37BD4618
:100990005DF8047B704700BF80B485B000AF78601D
:1009A0000B467B800023FB737B681B889AB27B8895
:1009B00013409BB2002B02D00123FB7301E0002304
:1009C000FB73FB7B18461437BD465DF8047B70470C
:1009D00080B483B000AF78600B467B807B88DB43BC
:1009E0009AB27B681A800C37BD465DF8047B70476D
:1009F00080B400AF00BF00BF00BF00BF00BF00BF9A
:100A000000BF00BF00BF00BF00BF00BF00BF00BFEE
:100A100000BF00BF00BF00BF00BF00BF00BF00BFDE
:100A200000BF00BFBD465DF8047B704780B500AFD6
:100A3000FFF7DEFFFFF7DCFFFFF7DAFFFFF7D8FF76
:100A400080BD00BF80B400AF00BF00BFBD465DF8F1
:100A5000047B704780B584B000AF0346FB80002361
:100A6000FB8104E0FFF7E2FFFB890133FB81FA8998
:100A7000FB889A42F6D31037BD4680BD80B586B05C
:100A800000AF78600820012100F088FC0023BB82C1
:100A90000023FB817B685B00013B3B6149F63F43E0
:100AA000BB810023BB7507F10C030E48194602F009
:100AB0003BFC32233B7202237B720323BB72012374
:100AC000FB7207F10803184602F0CEFB054801212E
:100AD000012202F06FFD044B00221A701837BD4648
:100AE00080BD00BF000C00405C0A002080B500AF54
:100AF0000248012102F090FC80BD00BF000C0040C4
:100B000080B500AF00F00AF80348002102F076FC3F
:100B1000FFF7ECFF80BD00BF000C004080B500AFC8
:100B20000248002102F078FC80BD00BF000C0040AC
:100B300080B500AF0548012102F070FD0348012196
:100B400002F05CFD024B01221A7080BD000C0040D7
:100B50005C0A002080B582B000AF0F4B7B600F4B6A
:100B60003B6007E03B681A1D3A607A68111D7960A6
:100B700012681A603B680A4A9342F3D309480A494B
:100B80004FF000028842B8BF40F8042BFADB00F0B7
:100B900025FB0837BD4680BDE0810008000000202D
:100BA0009C0800209C080020080D002080B400AFA5
:100BB000FEE700BF80B500AFFFF738FB134B3422D0
:100BC0001A70134B26221A70124B00221A70124B05
:100BD00000221A70114B00221A70114B00221A7059
:100BE000104B00221A70104B00221A700F4B00227B
:100BF0001A700F4B00221A700E4B00221A700E4B07
:100C000000221A700D4B00221A7080BD580C002073
:100C10005E0C0020850B00205C0C00205F0C002087
:100C20005A0C0020F90A0020F80A00205D0C002070
:100C3000840B0020590C00205B0C0020600C00206D
:100C400080B582B000AF3D4B1A783D4B1A703D4BDA
:100C500000221A703C4B00221A703C4B00221A7082
:100C60004FF4967000F046FDFFF7B8FB00F07AFDF8
:100C700000BF364B1B78002B03D1324B1B78002B67
:100C8000F7D000F079FD314B1B78012B0AD100F031
:100C9000CBFC2F4B1B780133DAB22D4B1A704FF07F
:100CA000FF3346E0274B1B78012B40D1294B1B68B3
:100CB000002B1DD100237B600BE07B689B00264A44
:100CC000134426497A6851F822201A607B68013360
:100CD0007B60234B1B781A467B689A42EDDC214BE4
:100CE00000221A7000F0B4FC00F0BCFC002320E0ED
:100CF000184B1B68B3F5000F02D1164B1B6818E0A8
:100D0000144B1B68B3F5800F0ED1164B1B780133C3
:100D1000DAB2144B1A7000F07DFC124B1B78032BD7
:100D200005D94FF4800304E06FF07F4301E06FF0DA
:100D30007F4318460837BD4680BD00BF580C0020D1
:100D4000480A0020540A0020DF080020600C002020
:100D50005D0C00204C0A0020880B0020E0080020D9
:100D6000E1090020F80A002080B582B000AF454BB1
:100D70001B78002B1ED100F0ADF878607B68B3F5CE
:100D8000800F0DD1404B1B780133DAB23E4B1A7005
:100D900000F040FC3C4B1B78032B20D97B686CE0B7
:100DA0007B68B3F5000F03D07B68B3F5001F16D145
:100DB0007B6862E0354B1B687B607B68B3F5800F16
:100DC0000DD100F027FC304B1B780133DAB22E4BEB
:100DD0001A702D4B1B78032B01D97B684DE0294BF2
:100DE00000221A702A4B00221A702A4B1A782A4BBA
:100DF0001A702A4B2A4A1A60FFF702FB294B00227D
:100E00001A70322000F076FC00F0ACFC00BF254BDD
:100E10001B78002B07D11E4B1B78002B03D1194BDD
:100E20001B78002BF3D000F0A7FC1E4B1B78012B86
:100E30000AD100F0F9FB1C4B1B780133DAB21A4BD4
:100E40001A704FF0FF3318E00E4B1B78012B05D1C1
:100E50000D4B00221A700D4B1B680EE00C4B1B78DB
:100E6000012B08D1084B00221A7000F0F1FB00F0B2
:100E7000F9FB002301E06FF07F4318460837BD46B9
:100E800080BD00BF530A0020F80A0020580A002045
:100E9000D50800205E0C0020520A0020D80800204F
:100EA000600A0020600C00205D0C002080B500AFBF
:100EB000064B00221A70FFF76DFA00BF034B1B7838
:100EC000002BFBD0024B1B68184680BD540A002043
:100ED0004C0A002080B500AF064B00221A70FFF7C5
:100EE0006BFA00BF034B1B78002BFBD0024B1B6837
:100EF000184680BD530A0020580A002080B400AF75
:100F0000BD465DF8047B704780B400AFBD465DF818
:100F1000047B704780B400AFBD465DF8047B70472A
:100F200080B500AF0248042101F0CEF880BD00BFBB
:100F3000000C024080B500AF00BF00F0BBFB0346D1
:100F4000002BFAD000BF80BD80B500AF00BF00F01D
:100F5000C1FB0346002BFAD000BF80BD80B500AFB7
:100F60004FF4FA70FFF78AFD014B00221A7080BD22
:100F7000610C002080B584B000AF934B1B78002B30
:100F800003D1914B01221A701AE18F4B1B78012B70
:100F900005D1FFF7CFFF8C4B02221A7010E18A4B6C
:100FA0001B78022B05D1FFF7CFFF874B03221A7066
:100FB00006E1854B1B78032B0ED1FFF777FF034625
:100FC000002B03D0804B03221A70F9E07E4B0422E1
:100FD0001A70FFF7BBF9F3E07B4B1B78042B10D1A1
:100FE000FFF778FF0346002B03D0774B04221A70DB
:100FF000E6E0754B06221A70FFF7BAF9FFF776FDA7
:10100000DEE0714B1B78052B31D1FFF7ADFEF860A8
:10101000FB68B3F5000F03D0FB68B3F5001F03D1E5
:10102000694B0B221A7021E0FB68B3F1FF3F04D03B
:10103000FB686FF07F42934205D1FFF7F3F9624BF3
:1010400002221A7012E0FB68B3F5800F03D15E4BE9
:101050000D221A700AE0FB68002B03D15A4B0622BE
:101060001A7003E0584B05221A70A9E0A8E0564B0D
:101070001B78062B16D15548402101F0F3FC03469E
:10108000FB72FB7A002B03D04F4B06221A7097E0BD
:1010900001F0E4FB4E48012101F016F84A4B08220A
:1010A0001A708DE0484B1B78072B2DD1FFF7C8FD38
:1010B00078607B68B3F5000F03D1434B0A221A70A6
:1010C00021E07B68B3F5800F03D13F4B0C221A70EF
:1010D00019E07B686FF07F42934203D07B68B3F1E5
:1010E000FF3F05D1FFF79EF9374B02221A700AE045
:1010F0007B68002B03D1344B08221A7003E0324B7B
:1011000007221A705CE05BE02F4B1B78082B0BD199
:101110003048462101F010FD2D48042100F0D4FF95
:10112000294B09221A704BE0274B1B78092B14D14D
:10113000294B1B78012B02D1234B09221A7000BFC7
:10114000254B1B78002BFBD0234B00221A701E4B23
:1011500005221A70FFF7D4FC32E01B4B1B780A2BD8
:1011600005D1FFF7CBFE184B05221A7028E0164B6D
:101170001B780B2B05D1FFF7C7FE134B05221A7006
:101180001EE0114B1B780C2B05D1FFF7C3FE0E4B55
:1011900008221A7014E00C4B1B780D2B05D1FFF7B9
:1011A000BFFE094B06221A700AE0074B1B780E2B74
:1011B00005D101F0CDFC044B05221A7000E000BF00
:1011C0001037BD4680BD00BF610C0020440B0020DD
:1011D000000C0240FC0A00205C0A002080B500AF31
:1011E00000F0CCFF00F0F6FF4FF4A06002F02AF808
:1011F00001F01EFC01F0B0FAFFF7DCFC00F00AF988
:10120000FFF7ACFEFFF7B6FEFCE700BF80B489B085
:1012100000AF78600023BB6100237B610023FB618A
:1012200002233B610023FB600223BB60484B9B68A9
:1012300003F00C03BB61BB69042B07D0082B09D05A
:10124000002B3FD17B68434A1A603FE07B68424AEB
:101250001A603BE03E4B5B6803F480039B0DFB6030
:101260003B4B5B6803F03F03BB60FB68002B0DD07A
:10127000394ABB68B2FBF3F2354B596847F6C07385
:101280000B409B0903FB02F3FB610CE0314ABB6896
:10129000B2FBF3F22E4B596847F6C0730B409B0923
:1012A00003FB02F3FB612A4B5B6803F440331B0C26
:1012B00001335B003B61FA693B69B2FBF3F27B6887
:1012C0001A6003E07B68234A1A6000BF204B9B68CA
:1012D00003F0F003BB61BB691B09BB611F4ABB691B
:1012E00013441B78DBB27B617B681A687B69DA4048
:1012F0007B685A60164B9B6803F4E053BB61BB6983
:101300009B0ABB61154ABB6913441B78DBB27B6146
:101310007B685A687B69DA407B689A600C4B9B68F3
:1013200003F46043BB61BB695B0BBB610B4ABB69E8
:1013300013441B78DBB27B617B685A687B69DA40B7
:101340007B68DA602437BD465DF8047B704700BFD8
:10135000003802400024F40000127A00000000204F
:1013600080B483B000AF78600B46FB70FB78002B35
:1013700006D00949084B1A6B7B6813430B6306E0E0
:101380000549054B1A6B7B68DB4313400B630C3735
:10139000BD465DF8047B70470038024080B483B0DE
:1013A00000AF78600B46FB70FB78002B06D0094934
:1013B000084B1A6C7B6813430B6406E00549054B28
:1013C0001A6C7B68DB4313400B640C37BD465DF839
:1013D000047B70470038024080B483B000AF78606F
:1013E0000B46FB70FB78002B06D00949084B5A6C62
:1013F0007B6813434B6406E00549054B5A6C7B68D8
:10140000DB4313404B640C37BD465DF8047B7047EB
:101410000038024080B500AF00F01CF800F036F84C
:1014200000F050F800F06AF800F084F800F09EF840
:1014300000F0B8F800F0D2F800F000F900F008F978
:1014400000F010F900F018F900F020F900F028F988
:1014500080BD00BF80B582B000AF08200121FFF73A
:101460007FFF00233B7100237B710023BB710023AE
:10147000FB7140233B603B460348194600F044FDA6
:101480000837BD4680BD00BF000C024080B582B069
:1014900000AF08200121FFF763FF00233B71002309
:1014A0007B710023BB710023FB7180233B603B46B3
:1014B0000348194600F028FD0837BD4680BD00BF2F
:1014C000000C024080B582B000AF04200121FFF77C
:1014D00047FF01233B7100237B710023BB71012374
:1014E000FB714FF480533B603B460348194600F0C4
:1014F0000BFD0837BD4680BD0008024080B582B0B4
:1015000000AF04200121FFF72BFF01233B710023D3
:101510007B710023BB710123FB714FF400533B60CF
:101520003B460348194600F0EFFC0837BD4680BD36
:101530000008024080B582B000AF08200121FFF70B
:101540000FFF01233B7100237B710023BB7101233B
:10155000FB7101233B603B460348194600F0D4FC75
:101560000837BD4680BD00BF000C024080B582B088
:1015700000AF08200121FFF7F3FE01233B71002398
:101580007B710023BB710123FB7110233B603B4641
:101590000348194600F0B8FC0837BD4680BD00BFBF
:1015A000000C024080B582B000AF08200121FFF797
:1015B000D7FE01233B7100237B710023BB71012304
:1015C000FB7104233B603B460348194600F09CFC3A
:1015D0000837BD4680BD00BF000C024080B582B018
:1015E00000AF01200121FFF7BBFE01233B71002367
:1015F0007B710023BB710123FB714FF480633B605F
:101600003B460348194600F07FFC0837BD4680BDC5
:101610000000024080B500AF02484FF4005100F0D6
:1016200029FD80BD0008024080B500AF02480121BD
:1016300000F020FD80BD00BF000C024080B500AF6F
:1016400002484FF4805100F023FD80BD00080240A5
:1016500080B500AF02484FF4005100F019FD80BD85
:101660000008024080B500AF0248012100F010FDE3
:1016700080BD00BF000C024080B500AF02480421CD
:1016800000F006FD80BD00BF000C024080B500AF39
:101690000248102100F0FCFC80BD00BF000C02409D
:1016A00080B500AF02484FF4806100F0F1FC80BDCE
:1016B0000000024080B500AF0548402100F0B2FCB8
:1016C0000346002B01D1002300E00123184680BD12
:1016D000000C024080B500AF0548802100F0A2FC5C
:1016E0000346002B01D1002300E00123184680BDF2
:1016F000000C024080B586B000AF78601020012158
:10170000FFF74CFE0023BB820023FB817B685B005C
:10171000013B3B6149F63F43BB810023BB7507F1A9
:101720000C030E48194601F0FFFD36233B720323DC
:101730007B720323BB720123FB7207F10803184677
:1017400001F092FD05480121012201F033FF044B15
:1017500000221A701837BD4680BD00BF001000403F
:10176000600C002080B500AF0248012101F054FE5A
:1017700080BD00BF0010004080B500AF02480021CE
:1017800001F04AFE80BD00BF0010004080B500AFF0
:101790000648012101F042FF0448012101F02EFF1B
:1017A000034B01221A70FFF7E7FF80BD00100040D5
:1017B000600C002080B500AF4FF08040012101F0A7
:1017C0002BFE80BD80B500AF4FF08040002101F0BE
:1017D00023FE80BD80B500AF0548012100F022FC4A
:1017E0000346002B01D1002300E00123184680BDF1
:1017F0000000024080B500AF0548042100F012FC53
:101800000346002B01D1002300E00123184680BDD0
:101810000000024080B500AF0548022100F002FC44
:101820000346002B01D1002300E00123184680BDB0
:10183000000C024080B500AF0548082100F0F2FB23
:101840000346002B01D1002300E00123184680BD90
:10185000000C024080B582B000AF114800F0FCFBE4
:101860000346FB80FB8823F0FF03FB80FB881B0AF9
:10187000FB800C4800F0F0FB0346BB80BB883B605C
:101880003B681B023B60FB883A6813433B60386847
:1018900000F0B4F8034618460837BD4680BD00BFC7
:1018A000000C02400010024080B582B000AF00235F
:1018B000FB712548082100F0B5FB0346002B03D03F
:1018C000FB7943F00103FB7120484FF4804100F0A5
:1018D000A9FB0346002B03D0FB7943F00203FB7105
:1018E0001A484FF4004100F09DFB0346002B03D043
:1018F000FB7943F00403FB711348402100F092FB95
:101900000346002B03D0FB7943F00803FB710E481C
:10191000802100F087FB0346002B03D0FB7943F0C6
:101920001003FB7108484FF4807100F07BFB034605
:10193000002B03D0FB7943F02003FB71FB791846A1
:101940000837BD4680BD00BF0000024000080240CD
:1019500080B584B000AF78600023FB810023BB8199
:1019600000237B81786800F049F878607B68FB8110
:10197000FB891148194600F099FB7B6803F47F034B
:101980007B607B681B0C7B600C4800F065FB0346AA
:101990007B817B8923F0FF03BB817B689AB2BB8983
:1019A0001343BB81BB890548194600F07FFB00BF8C
:1019B0001037BD4680BD00BF000402400008024051
:1019C00080B400AF0A4B4FF400421A83094B4FF426
:1019D00080721A83084B20221A83064B4FF4007240
:1019E0001A83034B20221A83BD465DF8047B70479F
:1019F0000000024000080240000C024080B483B0A6
:101A000000AF78607B68DB4323F07F4318460C37D8
:101A1000BD465DF8047B704780B586B000AF786046
:101A200020200121FFF7BAFC0023BB820023FB81A9
:101A30007B685B00013B3B6149F63F43BB81002370
:101A4000BB7507F10C030E48194601F06DFC3723F6
:101A50003B7203237B720323BB720123FB7207F1EA
:101A60000803184601F000FC05480121012201F09D
:101A7000A1FD044B00221A701837BD4680BD00BF7F
:101A800000140040D608002080B500AF02480121B4
:101A900001F0C2FC80BD00BF0014004080B500AF63
:101AA0000248002101F0B8FC80BD00BF00140040D6
:101AB00080B500AF0648012101F0B0FD04480121C6
:101AC00001F09CFD034B01221A70FFF7E7FF80BD78
:101AD00000140040D608002080B582B000AF00237B
:101AE0007B6007E0164A7B68134400221A707B680B
:101AF00001337B607B68632BF4D912484021FEF7E9
:101B000067FF1148114900F0BFFD0E482021FEF784
:101B10005FFF0F484FF0815100F0B6FD00F01CF858
:101B200000F03CF800F05EF800F0F2F800F012F976
:101B300000F038F9074B01221A700837BD4680BD06
:101B4000E4090020004C00407060024020000020AA
:101B500040600240E009002080B582B000AF042060
:101B60000121FFF7FDFB0C480A21072200F0BEFA15
:101B700002233B7103237B710023BB710123FB71A3
:101B80004FF480633B603B460348194600F0BCF9C4
:101B90000837BD4680BD00BF0008024080B584B054
:101BA00000AF4FF480200121FFF7F8FB4FF4E13341
:101BB0003B600023BB800023FB8000233B8100238C
:101BC000BB8108237B813B4605481946FEF7E4FDAF
:101BD00003480121FEF79CFE1037BD4680BD00BFC3
:101BE0000048004080B500AF4FF400100121FFF71E
:101BF000B7FB1E4800F004FC1D4B64221A611C4B0D
:101C00000022DA621A4B00221A63194B00225A632F
:101C1000174B00221A62164B4FF480629A61144BE4
:101C200000225A62124B134A5A60114B00229A63E7
:101C30000F4B0022DA610E4B00225A610C4B4FF41D
:101C400000329A620A4B4FF000621A60084B402241
:101C5000DA60094A064B9A600448054900F0A2FC84
:101C6000064880210122FEF773FE80BD58600240C5
:101C7000640C002004480040E409002000480040B3
:101C800080B584B000AF7860396000BF1C48402147
:101C9000FEF782FE0346002BF8D019484021FEF7DC
:101CA00097FE18484FF0C05100F0EEFC0023FB8176
:101CB00009E0FB89FA8979680A441178124AD154FB
:101CC000FB890133FB81FA893B689A42F1DB3B686F
:101CD0000E4A13610B480D4900F064FC09480121CC
:101CE00000F0B6FC06480121FEF712FE04488021F0
:101CF0000122FEF72DFE00BF1037BD4680BD00BF9C
:101D00000048004058600240E4090020640C0020B4
:101D100080B582B000AF04200121FFF721FB0C4801
:101D20000B21082200F0E2F902233B7100237B71B2
:101D30000023BB710123FB714FF400633B603B4602
:101D40000348194600F0E0F80837BD4680BD00BFE3
:101D50000008024080B500AF4FF400200121FFF7DA
:101D60001DFB0E4B4FF4E1321A600C4B00229A809F
:101D70000A4B0022DA80094B00221A81074B00220D
:101D80009A81064B04225A8105480449FEF704FD56
:101D900003480121FEF7BCFD80BD00BFE00C002020
:101DA000004C004080B582B000AF4FF4001001211C
:101DB000FFF7D6FA0D233B7102237B710023BB7121
:101DC0000123FB713B1D184601F04EFA214800F03B
:101DD00017FB214B01221A611F4B0022DA621E4BB6
:101DE00000221A631C4B00225A631B4B00221A620A
:101DF000194B4FF480629A61174B00225A62164BBE
:101E0000164A5A60144B00229A63134B0022DA617F
:101E1000114B00225A61104B4FF440329A620E4B24
:101E20004FF000621A600C4B0022DA600A4B00226D
:101E30009A600848084900F0B5FB064810210122C5
:101E400000F050FC064840210122FEF781FD0837D2
:101E5000BD4680BD40600240A00C0020044C004004
:101E6000004C004080B582B000AF786039603B68BC
:101E7000002B02D14FF0FF3320E0124B1B78002BD8
:101E800001D100231AE00F4B00221A707B680E4A22
:101E900093603B680C4A13610C480B4900F082FBCD
:101EA0000B4840210122FEF753FD09480121FEF7AE
:101EB0002FFD0648012100F0CBFB0123184608370F
:101EC000BD4680BDE0090020A00C0020406002401B
:101ED000004C004080B500AF084840210022FEF7CA
:101EE00037FD07484FF0815100F0CEFB03484021F9
:101EF000FEF76EFD034B01221A7080BD004C0040BE
:101F000040600240E009002080B487B000AF7860F4
:101F1000396000237B6100233B610023FB600023C9
:101F20007B6176E07B69012202FA03F33B613B6847
:101F30001A683B691340FB60FA683B699A4265D1B5
:101F40007B681A687B695B00194603238B40DB437F
:101F50001A407B681A607B681A683B681B791946CF
:101F60007B695B0001FA03F31A437B681A603B68E4
:101F70001B79012B03D03B681B79022B2ED17B6888
:101F80009A687B695B00194603238B40DB431A4048
:101F90007B689A607B689A683B685B7919467B69C5
:101FA0005B0001FA03F31A437B689A607B685A6806
:101FB0007B699BB2194601238B40DB431A407B6847
:101FC0005A607B685B683A68927911467A6992B286
:101FD00001FA02F292B21A437B685A607B68DA68AF
:101FE0007B699BB25B00032101FA03F3DB431A40D8
:101FF0007B68DA607B68DA683B68DB7919467B6965
:102000005B0001FA03F31A437B68DA607B690133F2
:102010007B617B690F2B85D91C37BD465DF8047B3E
:10202000704700BF80B485B000AF78600B467B80FE
:102030000023FB737B681A697B881340002B02D056
:102040000123FB7301E00023FB73FB7B184614376D
:10205000BD465DF8047B704780B483B000AF786004
:102060007B681B699BB218460C37BD465DF8047B44
:10207000704700BF80B483B000AF78600B467B80B0
:102080007B687A881A830C37BD465DF8047B7047FD
:1020900080B483B000AF78600B467B807B687A8821
:1020A0005A830C37BD465DF8047B704780B483B01B
:1020B00000AF78600B467B807A887B685A610C376A
:1020C000BD465DF8047B704780B483B000AF786094
:1020D0000B467B807B685A697B885A407B685A61D3
:1020E0000C37BD465DF8047B704700BF80B485B0F7
:1020F00000AF78600B467B8013467B700023FB604B
:102100000023BB607B787A8802F00702920093403C
:10211000FB607B88DB089BB218467B88DB089BB2A0
:102120001A467B68083253F822207B8803F00703A5
:102130009B0019460F238B40DB4302EA03017B68B7
:1021400000F1080243F822107B88DB089BB21A4694
:102150007B68083253F82220FB681343BB607B88FE
:10216000DB089BB21A467B680832B96843F8221034
:102170001437BD465DF8047B704700BF80B500AFE3
:10218000114A114B1B6843F0010313600E4B0022F0
:102190009A600D4A0C4B1B6823F0847323F4803340
:1021A0001360094B094A5A60074A074B1B6823F41E
:1021B00080231360044B0022DA6000F087F8044BA0
:1021C0004FF000629A6080BD003802401030002459
:1021D00000ED00E080B487B000AF00233B61002336
:1021E0007B610223FB600023BB6002237B60324BD8
:1021F0009B6803F00C033B613B69042B07D0082B61
:1022000009D0002B3FD12D4B2D4A1A603FE02B4BBC
:102210002C4A1A603BE0284B5B6803F480039B0D5B
:10222000BB60254B5B6803F03F037B60BB68002B02
:102230000DD0244A7B68B2FBF3F21F4B596847F676
:10224000C0730B409B0903FB02F37B610CE01C4A4B
:102250007B68B2FBF3F2184B596847F6C0730B402A
:102260009B0903FB02F37B61134B5B6803F4403370
:102270001B0C01335B00FB607A69FB68B2FBF3F374
:102280000E4A136003E00D4B0D4A1A6000BF0A4B63
:102290009B6803F0F0031B090B4AD35CDBB23B6184
:1022A000064B1A683B6922FA03F3044A13601C3791
:1022B000BD465DF8047B70470038024010000020E6
:1022C0000024F40000127A001400002080B483B0CF
:1022D00000AF00237B6000233B60354A344B1B6812
:1022E00043F480331360324B1B6803F400333B60CC
:1022F0007B6801337B603B68002B03D17B68B3F5BF
:10230000A06FF0D12A4B1B6803F40033002B02D0DE
:1023100001233B6001E000233B603B68012B42D17D
:10232000234A234B1B6C43F080531364214A214BF7
:102330001B6843F4804313601D4A1D4B9B689360E8
:102340001B4A1B4B9B6843F400439360184A184B8D
:102350009B6843F4A0539360154B174A5A60144A84
:10236000134B1B6843F08073136000BF104B1B6856
:1023700003F00073002BF9D0104B40F205621A6095
:102380000B4A0B4B9B6823F003039360084A084BEE
:102390009B6843F00203936000BF054B9B6803F00A
:1023A0000C03082BF9D10C37BD465DF8047B704750
:1023B000003802400070004008504007003C0240D6
:1023C00080B485B000AF78600B4B1B68002B02D146
:1023D000094B0A4A1A60084B1B68FB60064B1A68D7
:1023E0007B681344044A1360FB6818461437BD46E3
:1023F0005DF8047B704700BF9C080020080D00209A
:1024000080B483B000AF78607B681B6823F0010262
:102410007B681A607B6800221A607B6800225A6021
:102420007B6800229A607B680022DA607B68002269
:102430001A617B6821225A617B68454A934203D125
:10244000444B3D229A607EE07B68434A934204D12C
:10245000404B4FF474629A6075E07B683F4A934248
:1024600004D13C4B4FF474129A606CE07B683C4A98
:10247000934204D1374B4FF074629A6063E07B68FB
:10248000384A934203D1334B374ADA605BE07B68CA
:10249000364A934203D12F4B354ADA6053E07B68CA
:1024A000344A934203D12B4B334ADA604BE07B68CA
:1024B000324A934204D1274B4FF03D52DA6042E05A
:1024C0007B682F4A934203D12E4B3D229A603AE01B
:1024D0007B682D4A934204D12A4B4FF474629A6070
:1024E00031E07B68294A934204D1264B4FF47412A1
:1024F0009A6028E07B68264A934204D1214B4FF032
:1025000074629A601FE07B68224A934203D11D4B9C
:10251000154ADA6017E07B681F4A934203D1194BD2
:10252000134ADA600FE07B681C4A934203D1154BD3
:10253000114ADA6007E07B68194A934203D1114BD4
:102540004FF03D52DA600C37BD465DF8047B7047B2
:10255000106002400060024028600240406002407B
:1025600058600240706002403D00002088600240D8
:10257000400F0020A060024000003D20B8600240F3
:10258000106402400064024028640240406402403B
:10259000586402407064024088640240A0640240B3
:1025A000B864024080B485B000AF78603960002321
:1025B000FB607B681B68FB60FA68244B1340FB6080
:1025C0003B681A683B68DB681A433B685B691A43DF
:1025D0003B689B691A433B68DB691A433B681B6A8B
:1025E0001A433B685B6A1A433B689B6A1A433B6821
:1025F0005B6B1A433B689B6B1343FA681343FB60A6
:102600007B68FA681A607B685B69FB60FB6823F093
:102610000703FB603B68DA6A3B681B6B1343FA688D
:102620001343FB607B68FA685A613B681A697B68F0
:102630005A603B685A687B689A603B689A687B6816
:10264000DA601437BD465DF8047B70473F801CF0AC
:1026500080B483B000AF78600B46FB70FB78002B32
:1026600006D07B681B6843F001027B681A6005E0B6
:102670007B681B6823F001027B681A600C37BD463B
:102680005DF8047B704700BF80B485B000AF786010
:1026900039607B68104A934202D8104BFB6001E01E
:1026A0000F4BFB603B6803F00053002B07D03B68E7
:1026B00023F0F02323F08213FA68D36006E03B682E
:1026C00023F0F02323F08213FA6893601437BD4699
:1026D0005DF8047B704700BF0F6402400060024059
:1026E0000064024080B485B000AFF860B960134662
:1026F000FB71BB6803F08003002B0FD0FB79002B2C
:1027000006D0FB685B6943F08002FB685A6105E014
:10271000FB685B6923F08002FB685A61BB68802B11
:1027200014D0FB79002B08D0FB681A68BB6803F053
:102730001E031A43FB681A6008E0FB681A68BB684E
:1027400003F01E03DB431A40FB681A601437BD46D2
:102750005DF8047B704700BF80B582B000AF0023F6
:102760007B6007E0244A7B68134400221A707B6870
:1027700001337B607B683F2BF4DD00237B6007E047
:102780001E4A7B68134400221A707B6801337B6009
:102790007B68452BF4DD194B44221A70174B4122FC
:1027A0005A70164B54229A70144B4122DA70134B14
:1027B0000D2283F8452000237B6007E0104A7B68E8
:1027C000134400221A707B6801337B607B68CF2B37
:1027D000F4DD00237B6007E00A4A7B681344002293
:1027E0001A707B6801337B607B68972BF4DD00F007
:1027F0000BF80837BD4680BD440B0020FC0A0020C2
:10280000880B0020600A002080B400AF124BAA227F
:102810005A70114BAA229A700F4B55225A710E4BC7
:1028200055229A710C4B53225A720B4B4F229A72BB
:10283000094BE0229A76084B20225A76064BFF225B
:102840009A77054B00225A77034B802283F82E207B
:10285000BD465DF8047B7047600A002080B483B0F9
:1028600000AF0023FB7000237B606F4B1A796F4B26
:102870009A726D4B5A796D4B9A736B4B9B79FB70C7
:10288000FB7823F01F03FB70684AFB789376664B56
:102890009B79FB70FB7803F01F03FB70634AFB78A6
:1028A0005376614BDA79614B9A775F4B1A7A5F4BBB
:1028B0005A7700237B6016E07B689B0021337A689F
:1028C000520009325849895C584AD1547B689B00B0
:1028D00022337A68053252005349895C534AD154F5
:1028E0007B6801337B607B68052BE5DD4E4B5A7DB1
:1028F0004E4B83F83A2000237B6016E07B689B00F8
:102900003D337A680B3252004749895C474AD154BB
:102910007B689B003E337A68520017324249895CDB
:10292000424AD1547B6801337B607B68042BE5DD30
:102930003D4B93F820203D4B83F8522000237B60D1
:1029400016E07B689B0055337A6852002132364985
:10295000895C364AD1547B689B0056337A681132C1
:1029600052003149895C314AD1547B6801337B6024
:102970007B68042BE5DD2C4B93F82B202B4B83F845
:102980006A2000237B6016E07B689B006D337A68C9
:10299000163252002449895C244AD1547B689B003A
:1029A0006E337A6852002D321F49895C1F4AD15418
:1029B0007B6801337B607B68042BE5DD1A4B93F861
:1029C00036201A4B83F8822000237B6016E07B6858
:1029D0009B0085337A68520037321349895C134A69
:1029E000D1547B689B0086337A681C3252000E49B2
:1029F000895C0E4AD1547B6801337B607B68022B73
:102A0000E5DD094B93F83D20084B83F89220064BF7
:102A100093F83E20054B83F89620002318460C3788
:102A2000BD465DF8047B7047440B0020600A00201F
:102A300080B500AFFFF750F8014B00221A7080BD3F
:102A4000D608002080B584B000AF7860786800F0C8
:102A50001BFE0346FB607868F968FFF711F9103731
:102A6000BD4680BD80B584B000AF7860396000237A
:102A7000FB6007E0FB687A68134400221A70FB6869
:102A80000133FB60FA683B689A42F3DB2748052173
:102A9000FFF7F6F84FF4FA70FEF7BEFFFEF7F4FF0B
:102AA00000BF78683968FFF7DDF90346012BF8D1DC
:102AB00000BF1F4B1B78002B03D11E4B1B78002B34
:102AC000F7D0FEF7EBFF1B4B1B78012B01D1012345
:102AD00027E0174B1B78012B22D17B681B78442BF6
:102AE0000ED17B6801331B78412B09D17B680233FF
:102AF0001B78542B04D17B6803331B78412B01D006
:102B000002230EE07B683F331B780D2B06D07B68D9
:102B10003F331B780A2B01D0032302E0002300E09F
:102B2000012318461037BD4680BD00BF4C80000809
:102B3000E0090020D608002080B582B000AF7860A0
:102B4000396078683968FFF79BF80837BD4680BD63
:102B500080B400AF00BFBD465DF8047B704700BF86
:102B600080B500AF1C4B01221A701C4B01221A7059
:102B70001B4B01221A701B4B01221A7000F034F813
:102B800000F00CFA00F024FA00F03EFA00F058FAD7
:102B900000F0EAF9FEF714FF00F01AF900F032F93C
:102BA00000F05AF900F072F900F09AF900F0B2F969
:102BB00000F0CAF800F0E2F800F032F800F060F837
:102BC00000F090F86FF07F40FEF7C2FE00F054FA7C
:102BD000FEF7F8FD80BD00BFDD080020D40800200E
:102BE000DC080020510A002080B500AF012001213F
:102BF000FEF7B6FB02200121FEF7B2FB0420012103
:102C0000FEF7AEFB08200121FEF7AAFB10200121F0
:102C1000FEF7A6FB4FF480400121FEF7DDFB80BDEF
:102C200080B500AF134B4FF6FF721A60114B0122B3
:102C30001A71104B00229A710E4B0022DA710D4B63
:102C400001225A710C480B49FFF75EF9094BFF222C
:102C50001A60084B01221A71064B00229A71054B2B
:102C60000022DA71034B01225A7104480149FFF72F
:102C70004BF980BDF00C0020000402400008024027
:102C800080B500AF144B4FF6FF721A60124B002252
:102C90001A71114B00229A710F4B0022DA710E4B00
:102CA00001225A710D480C49FFF72EF90A4B4FF4D7
:102CB0007F421A60084B00221A71074B00229A715A
:102CC000054B0022DA71044B01225A710448024973
:102CD000FFF71AF980BD00BFF00C00200010024081
:102CE000000C024080B500AF144B4FF4E4721A6040
:102CF000124B00221A71114B00229A710F4B0022C5
:102D0000DA710E4B01225A710D480C49FFF7FCF89D
:102D10000A4B4FF440421A60084B00221A71074BCD
:102D200000229A71054B0022DA71044B01225A717C
:102D300004480249FFF7E8F880BD00BFF00C00200E
:102D4000000002400008024080B500AF094B01229C
:102D50001A60084B00221A71064B00229A71054B2B
:102D60000022DA71034B01225A7103480149FFF72F
:102D7000CBF880BDF00C00200000024080B500AF11
:102D800000200021FDF700FA0F4B01221A600E4BC4
:102D900000221A710C4B0C225A710B4B01229A71B2
:102DA000094800F0C1F9094B06221A70074B0022AE
:102DB0005A70064B00229A70044B0122DA700348C5
:102DC00000F052FA80BD00BFFC0C0020F80C00207F
:102DD00080B500AF094B04221A60084B00221A711B
:102DE000064B00229A71054B0022DA71034B012237
:102DF0005A7103480149FFF787F880BDF00C0020A5
:102E00000000024080B500AF00200221FDF7BCF9B0
:102E10000F4B04221A600E4B00221A710C4B102229
:102E20005A710B4B01229A71094800F07DF9094B48
:102E300008221A70074B01225A70064B00229A7022
:102E4000044B0122DA70034800F00EFA80BD00BF87
:102E5000FC0C0020F80C002080B500AF094B0222CA
:102E60001A60084B00221A71064B00229A71054B1A
:102E70000022DA71034B01225A7103480149FFF71E
:102E800043F880BDF00C0020000C024080B500AF7C
:102E900003200121FDF778F90F4B02221A600E4B37
:102EA00000221A710C4B10225A710B4B01229A719D
:102EB000094800F039F9094B07221A70074B012223
:102EC0005A70064B02229A70044B0122DA700348B2
:102ED00000F0CAF980BD00BFFC0C0020F80C0020F7
:102EE00080B500AF094B08221A60084B00221A7106
:102EF000064B00229A71054B0022DA71034B012226
:102F00005A7103480149FEF7FFFF80BDF00C002015
:102F1000000C024080B500AF03200321FDF734F917
:102F20000F4B08221A600E4B00221A710C4B102214
:102F30005A710B4B01229A71094800F0F5F8094BC0
:102F400009221A70074B01225A70064B01229A700F
:102F5000044B0122DA70034800F086F980BD00BFFF
:102F6000FC0C0020F80C002080B500AF094B20229B
:102F70001A60084B01221A71064B00229A71054B08
:102F80000022DA71034B01225A7103480149FEF70E
:102F9000BBFF80BDF00C0020000C024080B500AFEC
:102FA000094B20221A60084B01221A71064B00229D
:102FB0009A71054B0022DA71034B00225A710348C3
:102FC0000149FEF7A1FF80BDF00C00200000024087
:102FD00080B500AF0A4B4FF400721A60084B012213
:102FE0001A71074B00229A71054B0022DA71044BCB
:102FF00001225A7103480249FEF786FF80BD00BFD7
:10300000F00C00200008024080B500AF0A4B4FF4DE
:1030100080721A60084B01221A71074B00229A71C4
:10302000054B0022DA71044B00225A710348024911
:10303000FEF76AFF80BD00BFF00C002000080240D0
:1030400080B500AF0A4B4FF400421A60084B0122D2
:103050001A71074B00229A71054B0022DA71044B5A
:1030600000225A7103480249FEF74EFF80BD00BF9F
:10307000F00C00200000024080B58AB000AF0120B3
:103080000121FEF78BF90120FDF7C0F802233B6018
:1030900002233B7100237B710023BB710023FB7172
:1030A0003B4620481946FEF72FFF1E48012101220A
:1030B000FFF71CF80123BB830023FB8309233B623A
:1030C0000023BB84002387F8263007F11C034FF050
:1030D0008040194600F028F970233B8101237B8151
:1030E0000023BB8105233B610023BB820823FB82B5
:1030F0004FF480733B8300237B8307F108034FF079
:103100008040194600F0A8F94FF08040002100F0FF
:1031100083F94FF08040012100F026FA2837BD46A0
:1031200080BD00BF0000024080B485B000AF786071
:103130000023FB60344BFB607B689B79002B4FD0F6
:103140003149314B1A687B681B68DB4313400B60C5
:103150002D492D4B5A687B681B68DB4313404B603D
:103160007B681B791A46FB681344FB60FB68FA68AE
:1031700011687A6812680A431A602349224B9A68D8
:103180007B681B68DB4313408B601F491E4BDA686A
:103190007B681B68DB431340CB607B685B79102B3B
:1031A0000ED11949184B9A687B681B6813438B60D2
:1031B0001549154BDA687B681B681343CB601DE02B
:1031C000114BFB607B685B791A46FB681344FB601C
:1031D000FB68FA6811687A6812680A431A600DE0A1
:1031E0007B681B791A46FB681344FB60FB68FA682E
:1031F00011687A681268D2430A401A601437BD46D3
:103200005DF8047B704700BF003C014080B483B090
:1032100000AF7860034A7B6853610C37BD465DF8A8
:10322000047B7047003C014080B483B000AF7860FD
:10323000034A7B6853610C37BD465DF8047B7047D9
:10324000003C014080B483B000AF7860054A7B68E1
:1032500043F0BF6343F40033D3600C37BD465DF8E1
:10326000047B704700ED00E080B485B000AF78606B
:103270000023FB730023BB730F237B737B68DB7816
:10328000002B38D0264BDB68DB4303F4E0631B0ADA
:10329000FB73FB7BC3F10403BB737A7BFB7B42FABA
:1032A00003F37B737B685B781A46BB7B02FA03F3FC
:1032B000FB737B689A787B7B1340DAB2FB7B13430A
:1032C000FB73FB7B1B01FB73164A7B681B78134463
:1032D000FA7B83F80023134A7B681B785B09DBB217
:1032E00018467B681B7803F01F03012101FA03F3E2
:1032F00042F820300FE00B497B681B785B09DBB29A
:1033000018467B681B7803F01F0301229A4000F1E6
:10331000200341F823201437BD465DF8047B704735
:1033200000ED00E000E100E080B485B000AF78601F
:1033300039600023FB817B681B88FB817B68284AFE
:10334000934213D07B68274A93420FD07B68B3F136
:10335000804F0BD07B68244A934207D07B68234A76
:10336000934203D07B68224A934208D1FB8923F021
:103370007003FB813B685A88FB891343FB817B68A0
:103380001C4A93420CD07B681B4A934208D0FB89AD
:1033900023F44073FB813B681A89FB891343FB814B
:1033A0007B68FA891A803B685A687B68DA623B68F6
:1033B0001A887B681A857B68094A934203D07B6828
:1033C000084A934204D13B689B7A9AB27B681A867A
:1033D0007B6801229A821437BD465DF8047B7047F2
:1033E00000000140000401400004004000080040CB
:1033F000000C0040001000400014004080B483B076
:1034000000AF786039607B683A685A620C37BD4615
:103410005DF8047B704700BF80B483B000AF786074
:103420000B46FB70FB78002B08D07B681B889BB297
:1034300043F001039AB27B681A8007E07B681B881F
:103440009BB223F001039AB27B681A800C37BD4609
:103450005DF8047B704700BF80B485B000AF786032
:10346000396000237B810023FB810023BB817B68C3
:103470001B8C9BB223F010039AB27B681A847B6882
:103480001B8CFB817B689B88BB817B681B8B7B8152
:103490007B8923F4E0437B817B8923F440737B8128
:1034A0003B681B881B029AB27B8913437B81FB8993
:1034B00023F02003FB813B689B891B019AB2FB89A7
:1034C0001343FB813B685B881B019AB2FB89134362
:1034D000FB817B68224A934203D07B68214A934256
:1034E0002BD1FB8923F08003FB813B68DB891B0127
:1034F0009AB2FB891343FB81FB8923F04003FB81D4
:103500003B689B881B019AB2FB891343FB81BB89F3
:1035100023F48063BB81BB8923F40063BB813B68D8
:103520001B8A9B009AB2BB891343BB813B685B8AB1
:103530009B009AB2BB891343BB817B68BA899A808E
:103540007B687A891A833B689A687B689A637B6890
:10355000FA891A841437BD465DF8047B704700BFB2
:10356000000001400004014080B483B000AF7860E7
:103570000B46FB70FB78002B0CD07B68B3F8443013
:103580009BB26FEA43436FEA53439AB27B68A3F856
:10359000442009E07B68B3F844309BB2C3F30E03C8
:1035A0009AB27B68A3F844200C37BD465DF8047BD3
:1035B000704700BF80B483B000AF78600B467B805B
:1035C00013467B707B78002B08D07B689B899AB26E
:1035D0007B8813439AB27B689A8109E07B689B8958
:1035E0009AB27B88DB439BB213409AB27B689A8184
:1035F0000C37BD465DF8047B704700BF80B483B0D4
:1036000000AF78600B467B807B88DB439AB27B6897
:103610001A820C37BD465DF8047B704780B483B0D6
:1036200000AF78600B467B807B88DB439AB27B6877
:103630001A820C37BD465DF8047B70470EB4F0B5B6
:103640009CB021AB0F4953F8042B019305466FF052
:103650000044086802954FF402774FF6FF7602A9FE
:103660000695ADF8147004940794ADF8166000F058
:1036700039F8029B00221A701CB0BDE8F04003B07C
:10368000704700BF5004002020F0030110F0030039
:10369000C0F1000051F8043B00F1040C4FEACC0CDF
:1036A0006FF000021CBF22FA0CF213434FF0010C22
:1036B0004CEA0C2C4CEA0C4CA3EB0C0222EA030261
:1036C00012EACC1204BF51F8043B0430F4D0C2F12A
:1036D000000102EA0102B2FA82F2C2F11F0200EB1B
:1036E000D20070472DE9F04FC1B089460A920E937F
:1036F000089002F023FA036817931846FFF7C4FFF7
:10370000B9F80C3018901A0604D5D9F81030002BEF
:1037100001F08C80002330AF1393259324931693EC
:1037200019930B932397149315933C464E460A9D89
:103730002B78002B00F0A980252B02D1A5E0252BAA
:1037400003D015F8013F002BF9D10A9BEB1A73B196
:10375000249A25990A98206001321944072A636047
:103760002591249272DC08340B9A1A440B922B7820
:10377000002B00F0B5870023691C6D788DF86F3041
:103780001A460C9307934FF0FF3A4B1CA5F120010A
:10379000582900F2D983DFE811F07002D703D7036C
:1037A0007403D703D703D703D703D703D703F00294
:1037B0000D02D703F4011102D7037B03BA02BA0248
:1037C000BA02BA02BA02BA02BA02BA02BA02D703FB
:1037D000D703D703D703D703D703D703D703D70319
:1037E000D703C9028B03D7038B03D703D703D703B0
:1037F000D7036D03D703D7030503D703D703D70335
:10380000D703D7032303D703D7033D03D703D70336
:10381000D703D703D703D703D703D703D703D703D8
:1038200058032C028B038B038B03FE022C02D7035D
:10383000D703E602D7037E02FB01C0037702D7035A
:103840009202D7037A00D703D7034A020898079356
:10385000314623AA03F022F850B93C46079B83E780
:103860000898314623AA03F019F8002800F0858152
:10387000B146B9F80C3013F0400F0B9B18BF4FF056
:10388000FF33184641B0BDE8F08F0A9D6FE70A93F9
:10389000079B980640F1AD820E9B03F1070929F0C2
:1038A000070303F10802D3E900890E9201234FF0C8
:1038B000000C8DF86FC0CDF844A0BAF1000F03DB07
:1038C000079A22F08002079258EA090240F04C83DE
:1038D000BAF1000F00F05184012B00F04F83022B4E
:1038E00000F0908439464FEAD80242EA49724FEA22
:1038F000D90008F0070381469046303358EA0902A0
:1039000001F8013DEFD1079A1091D20700F14485EB
:103910007B1A0D930D9A92455346B8BF13460993EF
:1039200000231293BCF1000F02D0099B01330993CD
:10393000079B13F002030F9302D0099B02330993F4
:10394000079B13F0840940F00C830C9B099AC2EB8F
:103950000308B8F1000F40F30483B8F1100F259964
:10396000249ADFF844A529DD53464FF0100BC246D8
:10397000A8461D4606E0AAF1100ABAF1100F04F19C
:10398000080417DD01321031072A2591249284E8BA
:103990002008F0DD0898314623AA02F07FFF0028B6
:1039A0007FF466AFAAF1100ABAF1100F2599249A94
:1039B0003C46E7DC2B464546D0469A46013208EBAA
:1039C000010B072ACDF894B02492C4F800A0C4F8E3
:1039D000048000F37B849DF86FC00834BCF1000FB5
:1039E0000FD0249B01330BF1010B0DF16F0101226C
:1039F000072BCDF894B0249384E8060000F3DA8313
:103A000008340F9B73B1249B01330BF1020B1CA9EB
:103A10000222072BCDF894B0249384E8060000F32B
:103A2000D5830834B9F1800F00F01183119B0D9AF2
:103A3000C2EB030ABAF1000F3CDDBAF1100F249A71
:103A4000DFF868942BDD49465B46A9464FF0100825
:103A5000DDF820B00D4606E0AAF1100ABAF1100F09
:103A600004F1080417DD01321033072A259324924C
:103A700084E82001F0DD5846314623AA02F00EFF0B
:103A800000287FF4F5AEAAF1100ABAF1100F259BB9
:103A9000249A3C46E7DC9B462B464D46994601322C
:103AA000D344072ACDF894B0249284E8000600F3AA
:103AB00075830834079BD90500F16C82249B0D990E
:103AC000109A226001338B44072BCDF894B06160CB
:103AD000249300F346830834079B5A0741D50C9B77
:103AE000099A9D1A002D3CDD102D249BDFF8B8A308
:103AF00023DD4FF010085A46DDF8209004E0103D19
:103B0000102D04F1080417DD01331032072B259224
:103B10002493C4F800A0C4F80480F0DD4846314680
:103B200023AA02F0BBFE00287FF4A2AE103D102DA8
:103B3000259A249B3C46E7DC93460133AB44072B94
:103B4000CDF894B02493C4F800A0656009DD08980E
:103B5000314623AA02F0A2FE00287FF489AEDDF8E8
:103B600094B00B9B099A0C998A42ACBF9B185B18C6
:103B70000B93BBF1000F7FF473AE002324933C46FC
:103B8000D5E5194607981D7840F004000790FCE53C
:103B90000A93079B13F0200300F00E810E9B03F1A4
:103BA000070929F0070303F10802D3E900890E92FF
:103BB00000237CE61D7819462B22E6E51D782A2D88
:103BC00003F1010100F0AD87A5F1300009280B4693
:103BD0004FF0000A3FF6DAAD13F8015B0AEB8A0AF0
:103BE00000EB4A0AA5F130000928F5D94AEAEA7A39
:103BF000CCE50A93079B8DF86F209B0640F1A180CE
:103C00000E9B03F1070929F00709D9E9002309F1FF
:103C100008010E9190469946002A73F10003C0F204
:103C20000B849DF86FC0CDF844A0012345E60A93AC
:103C30009B4B1693079B8DF86F209B0640F1F380FA
:103C40000E9B03F1070929F00703D3E9008903F16B
:103C500008020E92079BD90740F1F58058EA090344
:103C600000F0F180079A8DF87150302342F0020283
:103C70008DF870300792022319E61D781946002A44
:103C80007FF483AD202280E5079941F02001079160
:103C90001D78194679E50A93079B8DF86F209A06DF
:103CA00040F1A1840B990E9A4FEAE1791368084616
:103CB0008846043249460E92C3E9000137E50E9A60
:103CC0000A93136810934FF0000B8DF86FB002F158
:103CD0000409002B00F03B86BAF1000F1098C0F2E7
:103CE000E9855946524602F0BFF9002800F06C867B
:103CF000109BCDF844B0C31A0D93CDF8389023EA49
:103D0000E3730993CDF848B09DF86FC00AE6A5F1BA
:103D10003000002113F8015B01EB810100EB410150
:103D2000A5F130000928F5D90C912FE50A93079BDE
:103D30008DF86F2043F010030793079B9B063FF518
:103D40005FAF079BD80600F16883079B590640F1D7
:103D500064830E99B1F9008004314FEAE879424654
:103D60004B460E9158E71D7807996C2D00F0CB84D7
:103D700041F010010791194607E50E9D29680C9145
:103D800008460028294601F10401C0F2B5840E91CD
:103D90001D781946F9E4079941F0400107911D7813
:103DA0001946F2E40A93079B43F010030793079B1D
:103DB00013F020037FF4F2AE079A12F0100240F0E5
:103DC0001983079B13F0400300F014830E991346E8
:103DD0000A460432B1F800800E924FF0000966E501
:103DE0000A93079B43F010030793079B98063FF540
:103DF00053AD079BD90600F10683079B5A0640F195
:103E000002830E9AB2F8008004324FF000090123B9
:103E10000E924CE50A93234B1693079B8DF86F2067
:103E20009B063FF50DAF079BD80640F1CD830E9A58
:103E300013461B689846079B0432D9070E924FF031
:103E400000093FF50BAF022331E50E990A930A688A
:103E50008DF898200023012204319C4609920E918E
:103E60008DF86F3026ABCDF844C0CDF848C00D9228
:103E700010935DE5079941F0080107911D781946F7
:103E800083E4079941F0010107911D7819467CE40C
:103E9000079941F0800107911D78194675E400BF2C
:103EA000988000088480000864800008548000081E
:103EB0000A930E9B8DF86F2003F1070929F0070381
:103EC00003F108020E921A6814925B681593159913
:103ED000149802F0A5FC0128D3461498159940F0D7
:103EE00059830022002303F083FD002840F06485FD
:103EF0009DF86FC0079BBE4ADFF800E323F0800304
:103F00000793134603210020472DD8BF734609911C
:103F1000119010930D91129004E50E9807990A9351
:103F2000302203688DF870200246782541F00201A6
:103F300004329846AF4B169307910E924FF000094A
:103F40008DF871500223B2E40A938DF86F20002D92
:103F500000F0C683002301229C4609928DF89850F8
:103F60007EE7DDF894B039E5012B7FF4B8ACB9F108
:103F7000000F08BFB8F10A0F80F01C820DF5807B9E
:103F800008F130080BF8418DCBEB07030D93CDF80A
:103F900040B0BFE4652D40F3A0801498159900222D
:103FA000002303F01BFD002800F04581249B924A6A
:103FB000226001330BF1010B0122072BCDF894B0E5
:103FC0002493626000F3348308341D9B139A934258
:103FD00003DB079BDA077FF57FAD249B1899179ABF
:103FE000226001338B44072BCDF894B06160249399
:103FF00000F390830834139B5D1E002D7FF76CAD9A
:10400000102D249BDFF8F89140F3BA814FF010088F
:104010005A46DDF820A004E00834103D102D40F38E
:10402000AE8101331032072B25922493C4F80090FF
:10403000C4F80480F0DD5046314623AA02F02EFC7D
:1040400000287FF415AC259A249B3C46E5E70C9BA1
:10405000099AC2EB030ABAF1000F7FF7E7ACBAF195
:10406000100F249ADFF898912BDD49465B46A9464C
:104070004FF01008DDF820B00D4606E0AAF1100A56
:10408000BAF1100F04F1080417DD01321033072ACA
:104090002593249284E82001F0DD5846314623AA76
:1040A00002F0FCFB00287FF4E3ABAAF1100ABAF19E
:1040B000100F259B249A3C46E7DC9B462B464D4639
:1040C00099460132D344072ACDF894B0249284E86B
:1040D000000600F352820834A8E4139B249D012BB0
:1040E00040F32082109B236001350BF10103012274
:1040F000072D25932495626000F3268208341899D1
:104100006160013503EB010B072D179BCDF894B0CF
:104110002495236000F32482083400231498159911
:10412000002203F05BFC139B002840F0DE80109A15
:10413000013B013501329B44072D2495CDF894B005
:104140002260636000F30E810834199A62600135C1
:1041500093441FAB072DCDF894B0249523607FF7CF
:10416000BAAC0898314623AA02F098FB00287FF4E5
:104170007FABDDF894B03C46AEE4002B32D1079B18
:10418000D8072FD50DF5807B30230BF8413DCBEBC5
:1041900007030D93CDF840B0FFF7BCBB089831463C
:1041A00023AA02F07BFB00287FF462ABDDF894B019
:1041B0003C467FE40898314623AA02F06FFB0028B2
:1041C0007FF456ABDDF894B03C461AE408983146CB
:1041D00023AA02F063FB00287FF44AABDDF894B019
:1041E0003C461FE4CDF834A01097FFF793BB00BF07
:1041F0007880000898800008B48000087480000867
:10420000548000081698BB464FEA181308F00F01B7
:1042100043EA09734FEA191298469146435C0BF83A
:10422000013D58EA0903EFD15B46CDF840B0FB1AD7
:104230000D93FFF76FBB1D9D002D40F30582139A70
:1042400012998A421346A8BF0B461D461099002DAD
:1042500001EB020A0BDD249B21600133AB44072BE9
:10426000CDF894B06560249300F34D830834129B1D
:10427000002DA8BF5B1B002B1D4640F3F580102DC1
:10428000249BDFF8F49540F3C6815A464FF010089E
:10429000DDF820B004E00834103D102D40F3BA8161
:1042A00001331032072B25922493C4F80090C4F8F0
:1042B0000480F0DD5846314623AA02F0EFFA0028C8
:1042C0007FF4D6AA259A249B3C46E5E70898314618
:1042D00023AA02F0E3FA00287FF4CAAA9DF86FC06F
:1042E000DDF894B03C46FFF779BB03F1FF38B8F135
:1042F000000F7FF72AAFB8F1100FDFF87C9525DDAE
:104300005B464FF0100ADDF820B006E0A8F1100877
:10431000B8F1100F04F1080417DD01351033072D33
:104320002593249584E80006F0DD5846314623AAFB
:1043300002F0B4FA00287FF49BAAA8F11008B8F1A3
:10434000100F259B249D3C46E7DC9B460135C3446A
:10435000072DCDF894B02495C4F80090C4F80480DB
:104360007FF7F2AE0898314623AA02F097FA0028A8
:104370007FF47EAADDF894B0249D3C46E5E69346A2
:104380000133AB44072BCDF894B02493C4F80090CC
:1043900065607FF7A0ABE4E6302B109B3FF447AF9E
:1043A000013B1A461093BA1A30230D9201F8013CD2
:1043B000FFF7B0BABB46CDF824C0404649460A22B2
:1043C000002303F065FB3032404649460BF8012DCF
:1043D00000230A2203F05CFB8046894658EA090361
:1043E000EBD15B46FB1ADDF824C0CDF840B00D934D
:1043F000FFF790BA0E990A6804310E9190464FF07B
:104400000009FFF754BA0E990A68043101230E918E
:1044100090464FF00009FFF74ABA0E9A1368984683
:104420004FEAE3791346043342460E93002A4B4683
:1044300073F10003BFF6F5AB4FF02D0CD8F1000877
:1044400069EB49098DF86FC0CDF844A00123FFF74F
:1044500034BA0898314623AA02F020FA00287FF4E3
:1044600007AADDF894B03C46109A12991D9B0A44A5
:104470009046139A934246DB079AD00743D4139A87
:10448000C8EB0A05D31A9D42A8BF1D46002D0CDDBE
:10449000249AC4F800800132AB44072ACDF894B0C6
:1044A0006560249200F367820834002DACBF5D1B69
:1044B0001D46002D7FF710AB102D249BDFF8B8931D
:1044C0007FF75EAF4FF010085A46DDF820A004E0F9
:1044D0000834103D102D7FF752AF01331032072BF7
:1044E00025922493C4F80090C4F80480F0DD50466F
:1044F000314623AA02F0D2F900287FF4B9A9259AFF
:10450000249B3C46E5E7249A1898179921600132CC
:104510008344072ACDF894B06060249200F30A82A5
:104520000834ACE7079BD9073FF5DCAD109B23604F
:1045300001350BF1010B0123072DCDF894B0249523
:1045400063607FF701AE0DE70898314623AA02F0B9
:10455000A5F900287FF48CA9259B249D3C46CEE537
:104560000898314623AA02F099F900287FF480A91F
:10457000DDF894B0249D3C46CFE50898314623AA47
:1045800002F08CF900287FF473A9DDF894B03C4662
:10459000FFF74CBA02F044F9002840F0C780864685
:1045A000B24AB34B119007989DF86FC0CDF848E020
:1045B000032120F08000472DD8BF1A4609910790AB
:1045C00010920D91FFF7AEB9079B0E9A13F0400FB2
:1045D00013463FF42EAC0433B2F800800E934FF034
:1045E0000009FFF737BB079BDB060BD4079B5D0673
:1045F00008D50E9A136804320E92BDF82C201A804A
:10460000FFF795B80E9A136804320E920B9A1A604F
:10461000FFF78DB893460133AB44072BCDF894B028
:104620002493C4F8009065603FF713AF08341BE78C
:104630000898314623AA02F031F900287FF418A91E
:10464000DDF894B03C46C0E4249B8A4A22600133E2
:104650000BF1010B0122072BCDF894B0249362607B
:1046600000F3F48008342DB9139B1BB9079BDB07BB
:104670007FF532AA249B1898179A226001330BEB1E
:104680000001072B25916060249300F3F38104F16E
:1046900008026D42002D40F3FC80102DDFF8D89108
:1046A00040F33D811024DDF8208004E00832103D05
:1046B000102D40F3348101331031072B25912493C1
:1046C000C2F800905460F1DD4046314623AA02F062
:1046D000E5F800287FF4CCA82599249B3A46E6E724
:1046E000259BB146002B3FF4C4A80898314623AA65
:1046F00002F0D4F8FFF7BDB80C980E9140420C9030
:104700001946FFF73FBA41F0200107915D78591C27
:10471000FFF73BB80898314623AA02F0BFF80028FB
:104720007FF4A6A8DDF894B03C4664E425F02003AD
:10473000BAF1FF3F0D9300F09680472B05D1BAF1F7
:10474000000F14BFD3464FF0010B079B43F4807357
:104750001193159BB3F1000A149B0993BBBF5346F9
:1047600003F1004A00232D23662D0F9300F0AC8047
:10477000462D00F0A9800D9B099A452B0CBF0BF12B
:104780000109D94602201DA98DE8010202911EA847
:1047900021A9039053460491089800F085FA672DEB
:1047A000109002D0472D40F09F80079BDB0740F11F
:1047B0008981109B03EB09080998514600220023C8
:1047C00003F00CF9002840F0FD80219B984506D9A4
:1047D00030215A1C21921970219B9845F9D8109AC2
:1047E0009B1A13930D9B472B1D9B00F0DE80652DBC
:1047F00040F3F880662D129300F05781139B129AB4
:10480000934200F34481079BD90700F1738122EAA8
:10481000E2730D920F9A002A40F0BC800993119B1D
:10482000079311929DF86FC0FFF77CB8089840215C
:1048300001F088F9C9F80000C9F81000002800F05C
:104840008C814023C9F81430FEF764BF08983146C4
:1048500023AA02F023F800287FF40AA81D9DDDF8A2
:1048600094B03C46FFE64FF0060B6EE780800008F0
:104870007C800008B4800008548000080898314605
:1048800023AA02F00BF800287EF4F2AF2599249BAE
:104890003A46139C5460013301EB040B072B10992B
:1048A000CDF894B0249311603FF75BAC02F108049B
:1048B000FFF712B9CDF844B0FEF7E6FECDF8389018
:1048C0000D900346FFF71BBA03201DA98DE80108D0
:1048D00002911EA821A90390099A049153460898B1
:1048E00000F0E2F9D9461090109B03EB09080D9BEC
:1048F000462B7FF461AF109B1B78302B00F0E480D7
:104900001D9B984458E70898314623AA01F0C6FF3A
:1049100000287EF4ADAFDDF894B03C46A7E4013347
:104920002944072B25912493C2F800905560A5DCFB
:104930000832AEE70898314623AA01F0AFFF0028FD
:104940007EF496AF1D9BDDF894B03C4697E5534648
:10495000062B28BF06230D9323EAE373DDF840C03E
:104960000993834BCDF83890CDF844C0CDF848C0BA
:104970001093FEF7D7BF0898314623AA01F08EFFA7
:1049800000287EF475AF1D9B139ADDF894B0D31AFE
:104990003C468AE50993119B07934FF02D0C0023A9
:1049A0008DF86FC01193FEF7C0BFDA1C19DB9B4571
:1049B00017DB1293672521E74FF02D0C8DF86FC0A0
:1049C000FFF798BA43460AE72AEAEA731190CDF84E
:1049D000389012909DF86FC00993CDF834A0FEF77F
:1049E000A1BF023D013B002B1D93BABF5B422D22AC
:1049F0002B22092B8DF87C508DF87D2072DD0DF176
:104A00008B0E70465B4A82FB0321DA17C2EBA102D0
:104A100002EB8201A3EB410303F13001092A1346A3
:104A200000F8011DEEDC02463033D9B202F8011D58
:104A3000964540F299800DF17E02034601E013F89D
:104A4000011B02F8011B7345F9D123AB1B1A0DF1B1
:104A50007E0213441FAA9B1A139A1993012A134426
:104A60000D936BDD0D9B002201330D93129223EA0F
:104A7000E373CFE60898314623AA01F00FFF002820
:104A80007EF4F6AE1D9D2599249B3A4601E6129BC5
:104A9000002BD8BFC3F10208139BC8BF4FF0010819
:104AA00043440D9323EAE373B4E6002B30DDBBF1FE
:104AB000000F25D1079BDB0722D4129A0D9222EA20
:104AC000E273A7E6219B8AE609985146002200235B
:104AD00002F084FF00287FF413AFC9F101031D9396
:104AE000984469E6303330228DF87F308DF87E208F
:104AF00020ABAFE7129B01330D9323EAE37389E602
:104B0000129B0BF1010843440D9323EAE37381E602
:104B1000BBF1000F1BD1079BD80718D401230D93BD
:104B200078E60E9DD5F800A028460430BAF1000FB3
:104B30005D780E90BEF629AEFEF725BE079B13F0FA
:104B400001038FD112930D9B23EAE37362E60BF10D
:104B500002030D9323EAE3735CE6089A0C231360C7
:104B60004FF0FF30FEF78EBE0DF17E0372E700BFFF
:104B7000AC8000086766666602690B69934200F3C1
:104B80008F802DE9F04F03F1FF3801F1140700F198
:104B9000140B57F828205BF828304FEA880483B0BC
:104BA0000132B3FBF2F90BEB0403009407EB040AA8
:104BB0000193B9F1000F3BD000263246BC46DE46D9
:104BC00034465CF8046BDEF80050B3B2360C03FBDD
:104BD000094406FB09F606EB1446A3B2D31AB4B295
:104BE00013FA85F3C4EB154404EB23449BB243EA68
:104BF0000443E2454FEA24424EF8043B4FEA164490
:104C0000DFD2009B5BF8033093B9019C231F9B45C7
:104C10000CD254F8043C4BB9A4F1080302E01A6822
:104C2000043B1AB99B4508F1FF38F8D3C0F810804F
:104C3000044601F00BFD00282EDB09F101095D4659
:104C4000002357F8041B28688AB29A1A090C12FA32
:104C500080F2C1EB104303EB224391B241EA0341DE
:104C6000BA4545F8041B4FEA2343EAD25BF82820F3
:104C70000BEB880382B91A1F93450BD253F8042C0F
:104C800042B9083B02E01A68043B1AB99B4508F197
:104C9000FF38F8D3C4F81080484603B0BDE8F08F61
:104CA00000207047000000002DE9F04F016C97B024
:104CB0000446239DCDE9022341B1426C4A600123A1
:104CC00093408B6001F0DEFA00232364DDE90223C8
:104CD000002B994636DB00232B60A54B1A4609EAC8
:104CE0000303934217D0DDE90267002230463946BC
:104CF000002302F073FE804600282BD0229A012365
:104D00001360249B002B00F0CB809A481860013878
:104D100017B0BDE8F08F229A42F20F731360029B26
:104D2000002B00F0A6809448249B002BF0D0C37881
:104D3000002B00F0B78000F10803249A136017B02D
:104D4000BDE8F08F039A012322F000492B60CDF8D3
:104D50000C90C2E715AA14AB8DE80C002046324631
:104D60003B4601F001FD5FEA1955834640F08A8019
:104D7000DDF85080159D6FF4826345449D42C0F27A
:104D800097827E4A521B09FA02F9029A05F21243EF
:104D900022FA03F049EA000002F042FB0123013D40
:104DA000A1F1F8710D930022754B02F0FBF96AA393
:104DB000D3E9002302F0AAFB69A3D3E9002302F0A0
:104DC000F3F9064628460F4602F03AFB66A3D3E9FC
:104DD000002302F09BFB02460B463046394602F0A8
:104DE000E3F906460F4602F02BFE394604900022F6
:104DF0003046002302F0FCFD002840F0A681049B11
:104E0000162B00F29F81049A5E4B03EBC203D3E999
:104E10000001DDE9022302F009FE002800F04E82C5
:104E2000049B013B049300230B93C5EB0805B5F1EC
:104E3000010A00F1A18100230593049B002BC0F21D
:104E400092819A440A9300230893209B092B2BD824
:104E5000052B40F37086043B20930025209B023BEA
:104E6000032B00F24E86DFE813F0CC03BE03B20240
:104E70006306414B444AC9F31300002814BF184687
:104E8000104651E7C7F3130343F07F51CDF8348048
:104E90003046A5F2FF3541F44011DDF8508082E73D
:104EA0003A4835E7C31C48E7002161642046209159
:104EB00001F0C2F94FF0FF330693209A0C930123BF
:104EC0000790219220640993159B002BC0F2D28099
:104ED000049A0E2A00F3CE802A4B03EBC203D3E9D7
:104EE0000089219B002BC0F28F83DDE902674246D7
:104EF0004B463046394602F033FC02F0A1FD8246B3
:104F000002F09EFA42464B4602F000FB0B46024678
:104F10003946304602F046F9079D0AF130032B70FE
:104F2000069B012B06460F4605F1010562D00022C3
:104F3000174B02F0EBFA0022002306460F4602F060
:104F40004DFD002840F08380CDF808B00594DDF8D1
:104F50001CB0069C29E000BF61436F63A787D23F66
:104F6000B3C8608B288AC63FFB799F501344D33F58
:104F70000000F07FB5800008C48000080EFCFFFF31
:104F80000000F83FD8800008B8800008B48000080E
:104F90000000244002F0BAFA0022002306460F4621
:104FA00002F01CFD002840F0DE8342464B463046AE
:104FB000394602F0D5FB02F043FD824602F040FA8A
:104FC00042464B4602F0A2FA02460B4630463946AC
:104FD00002F0E8F80AF1300E05F801EBCBEB050E14
:104FE000744506460F464FF00002B54BD2D1DDF8AE
:104FF00008B0059C32463B463046394602F0D4F8AC
:1050000006460F464046494632463B4602F0F0FC13
:1050100048B94046494632463B4602F0DFFCB0B153
:105020001AF0010F13D015F8018C07996B1E04E0DC
:105030008B4200F0408413F8018DB8F1390F03F171
:1050400001051A46F4D008F10103DBB213702046C3
:10505000594601F017F90022049B2A70229A013365
:105060001360249B002B00F0458307981D6017B048
:10507000BDE8F08F099A002A00F08480209A012A66
:1050800040F30483069B5F1E089BBB42C0F2A983CA
:10509000DF1B069B002BC0F29C84059D069B059A96
:1050A00020461A44012105929A4401F085F90646EA
:1050B00065B1BAF1000F09DDAA45059A5346A8BFAC
:1050C0002B46D21A0592ED1AC3EB0A0A089B002B55
:1050D0001ADD099B002B00F07D83002F10DD314687
:1050E0003A46204601F00CFA06465A46314620461A
:1050F00001F06CF959468046204601F0C3F8C346DA
:10510000089BDA1B40F0A2822046012101F054F9ED
:105110000A9B002B804639DD01461A46204601F0E5
:10512000EFF9209B012B804640F396824FF0000957
:10513000D8F8103008EB8303186901F0EFF8C0F1DC
:1051400020002DE001230B936FE6049802F078F91C
:1051500032463B4602F042FC00287FF450AE049BEE
:10516000013B04934BE6059A049BD21A5B420893D9
:10517000002305920A9368E6CAF1000305934FF0F5
:10518000000A5AE6089F059D099E91E7209B012B86
:1051900040F3B3824FF000090A9B002BC8D10120D5
:1051A000504410F01F0000F08180C0F12003042B58
:1051B00040F3B884C0F11C00059B034405930544EB
:1051C0008244059B002B05DD59461A46204601F016
:1051D000E7F98346BAF1000F05DD41465246204605
:1051E00001F0DEF980460B9B002B40F06882069BA5
:1051F000002B40F39582099B002B71D1DDF81C90A8
:10520000069F4D4602E001F047F883464146584666
:10521000FFF7B2FC00F1300C05F801CBC9EB050338
:10522000BB42204659464FF00A024FF00003EADB2A
:10523000079B069A012AACBF9B1801331D464FF00D
:10524000000A594601222046CDF808C001F0A8F90D
:105250004146834601F0FAF90028DDF808C040F322
:10526000F68215F8012C07996B1E04E08B4200F0C2
:10527000738213F8012D392A03F10105F6D00132AA
:105280001A704146204600F0FDFF002E3FF4DFAECD
:10529000BAF1000F05D0B24503D05146204600F0C8
:1052A000F1FF3146204600F0EDFFD0E61C2083E7F9
:1052B000044B029A5B1B02FA03F06DE50B90B4E518
:1052C00000002440EEFBFFFF3146002320460A2267
:1052D00000F0E2FF0C9B002B064640F30C84069383
:1052E000002D05DD31462A46204601F059F90646D3
:1052F000B9F1000F40F0E982B146069B079A013BE5
:10530000D3180893029B03F0010309931746414603
:105310005846FFF731FC31460546584601F096F9EC
:105320004A4682464146204601F0B4F9C268034627
:1053300005F1300C002A40F0B88119465846CDF8E6
:1053400018C0059301F082F9059B0290194620468A
:1053500000F098FF029ADDF818C02AB9209B1BB90B
:10536000099B002B00F0A783BAF1000FC0F2518215
:1053700005D1209B1BB9099B002B00F04A82002A13
:1053800000F3B782089B87F800C007F1010A9F422B
:10539000554600F0BA8259460A220023204600F002
:1053A0007BFF4E458346314620464FF00A024FF0C0
:1053B000000300F0748100F06FFF494606460A22A0
:1053C0002046002300F068FF574681469FE70123EF
:1053D0000993219B002B40F313821F461E460C931A
:1053E00006930021172F61640AD9012204235B0070
:1053F00003F114008742114602F10102F7D2616401
:10540000204600F019FF0E2E079020643FF65CAD99
:10541000002D3FF459ADDDE9022304990029CDE9BF
:105420000E2340F32182B74B01F00F020D1103EB65
:10543000C203E906D3E9006740F1DB81B24BDDE945
:105440000E01D3E9082302F08BF9CDE9020105F042
:105450000F054FF003088DB1DFF8AC9230463946A6
:10546000EA0705D5D9E9002308F1010802F04EF852
:105470006D1009F10809F3D106460F46DDE9020176
:1054800032463B4602F06CF9CDE902010B9B43B179
:10549000DDE9020100229D4B02F0AAFA002840F04B
:1054A000AC82404601F0CCFFDDE9022302F02EF889
:1054B000974B002201F078FE069B0646A1F150773B
:1054C000002B00F06281049BDDF818901293099B79
:1054D000002B00F021828B4B8E4903EBC90353E96B
:1054E0000223002002F03CF932463B4601F05AFE0E
:1054F000DDE90267CDE910013946304602F0A0FA35
:10550000054601F09DFF303502460B4630463946D0
:1055100001F048FE5FFA85F8079DDDE9102385F864
:10552000008006460F46013502F062FA002840F07E
:10553000B28232463B460020744901F033FE0246F7
:105540000B46DDE9100102F071FA002840F0AC8250
:10555000B9F1010F40F33881079BCDF84CA0CDF88D
:1055600008B09944DDE910ABA0460DE00020674982
:1055700001F018FE52465B4602F03AFA002840F06D
:105580008E824D4500F01B81504659460022624BE9
:1055900001F0BCFF0022604B82468B463046394604
:1055A00001F0B4FF0F46064602F04AFA044601F045
:1055B00047FF02460B463046394601F0F3FD3034D2
:1055C000E4B252465B4605F8014B06460F4602F030
:1055D0000FFA32463B460028C8D0129BDDF808B0CF
:1055E0000493444633E500230993219B049A134412
:1055F0000C930133002B069340F30981069E374636
:10560000EFE600230993E4E6069B002B3FF76DAC21
:1056100040F0628240460022404B494601F076FF4E
:10562000DDE9022302F0F8F9DDF81880464600288B
:1056300000F08A80219B079DDB430493414620466E
:1056400000F020FE002E7FF42CAE00E559462046E7
:1056500000F056FF834657E5029B002B7FF466ADB2
:10566000039BC3F31303002B7FF494AD039B23F040
:1056700000473F0D3F05002F00F01A82059B0133C4
:1056800005930AF1010A4FF0010985E50D9A002AF8
:1056900000F0A58103F23343089F059DFFE400F06D
:1056A000FBFD57460646814631E601462046CDF8C9
:1056B00008C000F0E7FD0122DDF808C054E65846B6
:1056C000414600F0C3FF0028BFF691AD049F594644
:1056D000002320460A22013F049700F0DDFD099BCC
:1056E0008346002B7FF4F0AD0C9B002B40F3F88138
:1056F000069383E50798FFF70BBB029B002B7FF413
:1057000049ADADE7D8800008B08100080000F03F47
:1057100000001C400000E03F000024400000144056
:10572000209B022B7FF767AD069B002B82D1414661
:105730000522204600F0B0FD80464146584600F064
:1057400085FF00287FF776AF049A0799312301324D
:1057500004920B704D1C71E7049A01320492079A6F
:10576000312313708DE5DDF808B0059C6FE44046E9
:1057700001F066FEDDE9022301F0C8FE0022BC4B09
:1057800001F012FD0646A1F15077DDE90201002289
:10579000B84B01F007FD32463B46CDE9020102F06D
:1057A00045F98046002840F0B380324607F10043B7
:1057B000DDE9020102F01CF930B146463AE7DDF8B6
:1057C0004CA0DDF808B04446DDE90E23CDE9022304
:1057D000FFF77ABB5946089A204600F091FE8346AF
:1057E00092E4089B0A9A0897FB1A1A440A92002727
:1057F0004FE4DDE90E234FF00208CDE902232AE64B
:10580000012621960C96069600216164F8E51E4655
:10581000FAE7002A15DD594601222046CDF808C0D6
:1058200000F0BEFE4146834600F010FF0028DDF880
:1058300008C040F34A81BCF1390F00F006810CF139
:10584000010CB24687F800C07D1C4E4619E504D114
:105850001CF0010F01D004E5154615F8013C302B72
:1058600005F1FF32F8D00CE5049B5D42002D00F0FD
:10587000BD80814B05F00F0203EBC203D3E9002387
:10588000DDE90E0101F042FE2D11CDE9020100F02B
:105890002C817A4E4FF00208EB0705D5D6E900239C
:1058A00008F1010801F032FE6D1006F10806F3D18F
:1058B000CDE90201EAE5049A01320492079A302305
:1058C000137031231370FFF7C2BB7168204600F0DC
:1058D000B3FC33699A1C0546920006F10C010C30AA
:1058E00000F00CFC20462946012200F059FE8146BA
:1058F00003E5BCF1390F00F0A8800CF1010CB246B1
:1059000087F800C07D1C4E46BBE4B2464E4698E484
:105910004FF00008464617E7574909F1FF3301EBFE
:10592000C30132461393D1E900013B4601F0EEFD7D
:10593000DDE90267CDE910013946304602F080F812
:10594000054601F07DFD02460B463046394601F022
:1059500029FC079A3035B9F1010F157006460F463C
:1059600002F1010523D0079BCDF808A04B445E4609
:105970009A46AB460022424B01F0C8FD894680465C
:1059800002F05EF8074601F05BFD303702460B4639
:105990004046494601F006FC0BF8017BD345E9D1AE
:1059A000139BDDF808A0B3460F4606461D440022AF
:1059B000344BDDE9100101F0F7FB32463B4602F0C3
:1059C00017F8002847D0129B049315F8018CFFF7B5
:1059D0002CBB059B069A9D1A0023FFF760BB149B06
:1059E000089F059DC3F13603FFF759BBDDE90E2380
:1059F0004FF00208CDE9022348E5069B002B3FF457
:105A0000B6AE0C9D002D7FF7DFAE00221C4BDDE90A
:105A1000020101F07BFD06460F4608F10100CDE9C9
:105A2000026701F00DFD02460B463046394601F093
:105A30006DFD0F4B002201F0B7FB049B013B0646B6
:105A4000A1F150771293A94641E53922B2463A7046
:105A50004E467D1C07E4DDE910230020094901F0D2
:105A6000A1FB32463B4601F0E1FF70B9ACE600BF56
:105A700000001C4000001440D8800008B0810008DD
:105A8000000024400000E03F154615F8013C302B93
:105A900005F1FF32F8D0129B0493FFF7D8BA4346C2
:105AA000DDF808B0A0461C46129B0493FFF7BDBA70
:105AB000B946FFF771BBBCF1390FC6D0BAF1000F80
:105AC0007FF7BFAE05F1310CBBE67FF4BAAE1CF038
:105AD000010F3FF4B6AEAEE64FF000084646A9E52A
